{
  "contractName": "AmmunitionAsset",
  "abi": [
    {
      "inputs": [
        {
          "internalType": "address",
          "name": "_rbacAddress",
          "type": "address"
        }
      ],
      "stateMutability": "nonpayable",
      "type": "constructor"
    },
    {
      "anonymous": false,
      "inputs": [
        {
          "indexed": true,
          "internalType": "uint256",
          "name": "batchId",
          "type": "uint256"
        },
        {
          "indexed": false,
          "internalType": "address",
          "name": "auditor",
          "type": "address"
        },
        {
          "indexed": false,
          "internalType": "uint256",
          "name": "timestamp",
          "type": "uint256"
        }
      ],
      "name": "AmbiguityFlagged",
      "type": "event"
    },
    {
      "anonymous": false,
      "inputs": [
        {
          "indexed": true,
          "internalType": "uint256",
          "name": "batchId",
          "type": "uint256"
        },
        {
          "indexed": false,
          "internalType": "bool",
          "name": "destroyed",
          "type": "bool"
        },
        {
          "indexed": false,
          "internalType": "bytes32",
          "name": "newLocation",
          "type": "bytes32"
        },
        {
          "indexed": false,
          "internalType": "uint256",
          "name": "timestamp",
          "type": "uint256"
        }
      ],
      "name": "AmbiguityResolved",
      "type": "event"
    },
    {
      "anonymous": false,
      "inputs": [
        {
          "indexed": true,
          "internalType": "address",
          "name": "owner",
          "type": "address"
        },
        {
          "indexed": true,
          "internalType": "address",
          "name": "approved",
          "type": "address"
        },
        {
          "indexed": true,
          "internalType": "uint256",
          "name": "tokenId",
          "type": "uint256"
        }
      ],
      "name": "Approval",
      "type": "event"
    },
    {
      "anonymous": false,
      "inputs": [
        {
          "indexed": true,
          "internalType": "address",
          "name": "owner",
          "type": "address"
        },
        {
          "indexed": true,
          "internalType": "address",
          "name": "operator",
          "type": "address"
        },
        {
          "indexed": false,
          "internalType": "bool",
          "name": "approved",
          "type": "bool"
        }
      ],
      "name": "ApprovalForAll",
      "type": "event"
    },
    {
      "anonymous": false,
      "inputs": [
        {
          "indexed": true,
          "internalType": "uint256",
          "name": "batchId",
          "type": "uint256"
        },
        {
          "indexed": true,
          "internalType": "address",
          "name": "minter",
          "type": "address"
        },
        {
          "indexed": false,
          "internalType": "bytes32",
          "name": "secretHash",
          "type": "bytes32"
        },
        {
          "indexed": false,
          "internalType": "uint256",
          "name": "timestamp",
          "type": "uint256"
        }
      ],
      "name": "BatchMinted",
      "type": "event"
    },
    {
      "anonymous": false,
      "inputs": [
        {
          "indexed": true,
          "internalType": "address",
          "name": "from",
          "type": "address"
        },
        {
          "indexed": true,
          "internalType": "address",
          "name": "to",
          "type": "address"
        },
        {
          "indexed": true,
          "internalType": "uint256",
          "name": "tokenId",
          "type": "uint256"
        }
      ],
      "name": "Transfer",
      "type": "event"
    },
    {
      "anonymous": false,
      "inputs": [
        {
          "indexed": true,
          "internalType": "uint256",
          "name": "batchId",
          "type": "uint256"
        },
        {
          "indexed": false,
          "internalType": "bytes32",
          "name": "fromRole",
          "type": "bytes32"
        },
        {
          "indexed": false,
          "internalType": "bytes32",
          "name": "toRole",
          "type": "bytes32"
        },
        {
          "indexed": false,
          "internalType": "uint256",
          "name": "timestamp",
          "type": "uint256"
        }
      ],
      "name": "TransferInitiated",
      "type": "event"
    },
    {
      "anonymous": false,
      "inputs": [
        {
          "indexed": true,
          "internalType": "uint256",
          "name": "batchId",
          "type": "uint256"
        },
        {
          "indexed": false,
          "internalType": "bytes32",
          "name": "newLocation",
          "type": "bytes32"
        },
        {
          "indexed": false,
          "internalType": "address",
          "name": "auditor",
          "type": "address"
        },
        {
          "indexed": false,
          "internalType": "uint256",
          "name": "timestamp",
          "type": "uint256"
        }
      ],
      "name": "TransferVerified",
      "type": "event"
    },
    {
      "inputs": [
        {
          "internalType": "address",
          "name": "to",
          "type": "address"
        },
        {
          "internalType": "uint256",
          "name": "tokenId",
          "type": "uint256"
        }
      ],
      "name": "approve",
      "outputs": [],
      "stateMutability": "nonpayable",
      "type": "function"
    },
    {
      "inputs": [
        {
          "internalType": "address",
          "name": "owner",
          "type": "address"
        }
      ],
      "name": "balanceOf",
      "outputs": [
        {
          "internalType": "uint256",
          "name": "",
          "type": "uint256"
        }
      ],
      "stateMutability": "view",
      "type": "function",
      "constant": true
    },
    {
      "inputs": [
        {
          "internalType": "uint256",
          "name": "",
          "type": "uint256"
        }
      ],
      "name": "batches",
      "outputs": [
        {
          "internalType": "uint256",
          "name": "batchId",
          "type": "uint256"
        },
        {
          "internalType": "uint256",
          "name": "manufactureDate",
          "type": "uint256"
        },
        {
          "internalType": "bytes32",
          "name": "secretHash",
          "type": "bytes32"
        },
        {
          "internalType": "bytes32",
          "name": "currentLocation",
          "type": "bytes32"
        },
        {
          "internalType": "bytes32",
          "name": "pendingLocation",
          "type": "bytes32"
        },
        {
          "internalType": "bool",
          "name": "isAmbiguous",
          "type": "bool"
        }
      ],
      "stateMutability": "view",
      "type": "function",
      "constant": true
    },
    {
      "inputs": [
        {
          "internalType": "uint256",
          "name": "tokenId",
          "type": "uint256"
        }
      ],
      "name": "getApproved",
      "outputs": [
        {
          "internalType": "address",
          "name": "",
          "type": "address"
        }
      ],
      "stateMutability": "view",
      "type": "function",
      "constant": true
    },
    {
      "inputs": [
        {
          "internalType": "address",
          "name": "owner",
          "type": "address"
        },
        {
          "internalType": "address",
          "name": "operator",
          "type": "address"
        }
      ],
      "name": "isApprovedForAll",
      "outputs": [
        {
          "internalType": "bool",
          "name": "",
          "type": "bool"
        }
      ],
      "stateMutability": "view",
      "type": "function",
      "constant": true
    },
    {
      "inputs": [],
      "name": "name",
      "outputs": [
        {
          "internalType": "string",
          "name": "",
          "type": "string"
        }
      ],
      "stateMutability": "view",
      "type": "function",
      "constant": true
    },
    {
      "inputs": [
        {
          "internalType": "uint256",
          "name": "",
          "type": "uint256"
        },
        {
          "internalType": "bytes32",
          "name": "",
          "type": "bytes32"
        }
      ],
      "name": "nodeTimestamps",
      "outputs": [
        {
          "internalType": "uint256",
          "name": "",
          "type": "uint256"
        }
      ],
      "stateMutability": "view",
      "type": "function",
      "constant": true
    },
    {
      "inputs": [
        {
          "internalType": "uint256",
          "name": "tokenId",
          "type": "uint256"
        }
      ],
      "name": "ownerOf",
      "outputs": [
        {
          "internalType": "address",
          "name": "",
          "type": "address"
        }
      ],
      "stateMutability": "view",
      "type": "function",
      "constant": true
    },
    {
      "inputs": [],
      "name": "rbac",
      "outputs": [
        {
          "internalType": "contract RBAC",
          "name": "",
          "type": "address"
        }
      ],
      "stateMutability": "view",
      "type": "function",
      "constant": true
    },
    {
      "inputs": [
        {
          "internalType": "address",
          "name": "from",
          "type": "address"
        },
        {
          "internalType": "address",
          "name": "to",
          "type": "address"
        },
        {
          "internalType": "uint256",
          "name": "tokenId",
          "type": "uint256"
        }
      ],
      "name": "safeTransferFrom",
      "outputs": [],
      "stateMutability": "nonpayable",
      "type": "function"
    },
    {
      "inputs": [
        {
          "internalType": "address",
          "name": "from",
          "type": "address"
        },
        {
          "internalType": "address",
          "name": "to",
          "type": "address"
        },
        {
          "internalType": "uint256",
          "name": "tokenId",
          "type": "uint256"
        },
        {
          "internalType": "bytes",
          "name": "data",
          "type": "bytes"
        }
      ],
      "name": "safeTransferFrom",
      "outputs": [],
      "stateMutability": "nonpayable",
      "type": "function"
    },
    {
      "inputs": [
        {
          "internalType": "address",
          "name": "operator",
          "type": "address"
        },
        {
          "internalType": "bool",
          "name": "approved",
          "type": "bool"
        }
      ],
      "name": "setApprovalForAll",
      "outputs": [],
      "stateMutability": "nonpayable",
      "type": "function"
    },
    {
      "inputs": [
        {
          "internalType": "bytes4",
          "name": "interfaceId",
          "type": "bytes4"
        }
      ],
      "name": "supportsInterface",
      "outputs": [
        {
          "internalType": "bool",
          "name": "",
          "type": "bool"
        }
      ],
      "stateMutability": "view",
      "type": "function",
      "constant": true
    },
    {
      "inputs": [],
      "name": "symbol",
      "outputs": [
        {
          "internalType": "string",
          "name": "",
          "type": "string"
        }
      ],
      "stateMutability": "view",
      "type": "function",
      "constant": true
    },
    {
      "inputs": [
        {
          "internalType": "uint256",
          "name": "tokenId",
          "type": "uint256"
        }
      ],
      "name": "tokenURI",
      "outputs": [
        {
          "internalType": "string",
          "name": "",
          "type": "string"
        }
      ],
      "stateMutability": "view",
      "type": "function",
      "constant": true
    },
    {
      "inputs": [
        {
          "internalType": "address",
          "name": "from",
          "type": "address"
        },
        {
          "internalType": "address",
          "name": "to",
          "type": "address"
        },
        {
          "internalType": "uint256",
          "name": "tokenId",
          "type": "uint256"
        }
      ],
      "name": "transferFrom",
      "outputs": [],
      "stateMutability": "nonpayable",
      "type": "function"
    },
    {
      "inputs": [
        {
          "internalType": "uint256",
          "name": "_batchId",
          "type": "uint256"
        },
        {
          "internalType": "bytes32",
          "name": "_secretHash",
          "type": "bytes32"
        },
        {
          "internalType": "bytes32",
          "name": "_supplierRole",
          "type": "bytes32"
        }
      ],
      "name": "mintBatch",
      "outputs": [],
      "stateMutability": "nonpayable",
      "type": "function"
    },
    {
      "inputs": [
        {
          "internalType": "uint256",
          "name": "_batchId",
          "type": "uint256"
        },
        {
          "internalType": "bytes32",
          "name": "_nextRole",
          "type": "bytes32"
        }
      ],
      "name": "initiateTransfer",
      "outputs": [],
      "stateMutability": "nonpayable",
      "type": "function"
    },
    {
      "inputs": [
        {
          "internalType": "uint256",
          "name": "_batchId",
          "type": "uint256"
        },
        {
          "internalType": "bytes32",
          "name": "_auditorComputedHash",
          "type": "bytes32"
        }
      ],
      "name": "auditorVerifyTransfer",
      "outputs": [],
      "stateMutability": "nonpayable",
      "type": "function"
    },
    {
      "inputs": [
        {
          "internalType": "uint256",
          "name": "_batchId",
          "type": "uint256"
        },
        {
          "internalType": "bool",
          "name": "_destroyBatch",
          "type": "bool"
        },
        {
          "internalType": "bytes32",
          "name": "_overrideLocation",
          "type": "bytes32"
        }
      ],
      "name": "resolveAmbiguity",
      "outputs": [],
      "stateMutability": "nonpayable",
      "type": "function"
    }
  ],
  "bytecode": "0x60806040523480156200001157600080fd5b50604051620042aa380380620042aa83398181016040528101906200003791906200017b565b6040518060400160405280601181526020017f446566656e7365416d6d756e6974696f6e0000000000000000000000000000008152506040518060400160405280600481526020017f414d4d4f000000000000000000000000000000000000000000000000000000008152508160009081620000b4919062000427565b508060019081620000c6919062000427565b50505080600660006101000a81548173ffffffffffffffffffffffffffffffffffffffff021916908373ffffffffffffffffffffffffffffffffffffffff160217905550506200050e565b600080fd5b600073ffffffffffffffffffffffffffffffffffffffff82169050919050565b6000620001438262000116565b9050919050565b620001558162000136565b81146200016157600080fd5b50565b60008151905062000175816200014a565b92915050565b60006020828403121562000194576200019362000111565b5b6000620001a48482850162000164565b91505092915050565b600081519050919050565b7f4e487b7100000000000000000000000000000000000000000000000000000000600052604160045260246000fd5b7f4e487b7100000000000000000000000000000000000000000000000000000000600052602260045260246000fd5b600060028204905060018216806200022f57607f821691505b602082108103620002455762000244620001e7565b5b50919050565b60008190508160005260206000209050919050565b60006020601f8301049050919050565b600082821b905092915050565b600060088302620002af7fffffffffffffffffffffffffffffffffffffffffffffffffffffffffffffffff8262000270565b620002bb868362000270565b95508019841693508086168417925050509392505050565b6000819050919050565b6000819050919050565b60006200030862000302620002fc84620002d3565b620002dd565b620002d3565b9050919050565b6000819050919050565b6200032483620002e7565b6200033c62000333826200030f565b8484546200027d565b825550505050565b600090565b6200035362000344565b6200036081848462000319565b505050565b5b8181101562000388576200037c60008262000349565b60018101905062000366565b5050565b601f821115620003d757620003a1816200024b565b620003ac8462000260565b81016020851015620003bc578190505b620003d4620003cb8562000260565b83018262000365565b50505b505050565b600082821c905092915050565b6000620003fc60001984600802620003dc565b1980831691505092915050565b6000620004178383620003e9565b9150826002028217905092915050565b6200043282620001ad565b67ffffffffffffffff8111156200044e576200044d620001b8565b5b6200045a825462000216565b620004678282856200038c565b600060209050601f8311600181146200049f57600084156200048a578287015190505b62000496858262000409565b86555062000506565b601f198416620004af866200024b565b60005b82811015620004d957848901518255600182019150602085019450602081019050620004b2565b86831015620004f95784890151620004f5601f891682620003e9565b8355505b6001600288020188555050505b505050505050565b613d8c806200051e6000396000f3fe608060405234801561001057600080fd5b506004361061012c5760003560e01c806370a08231116100ad578063b88d4fde11610071578063b88d4fde14610358578063be849fa414610374578063c87b56dd14610390578063db6b4e8e146103c0578063e985e9c5146103dc5761012c565b806370a082311461029b57806395d89b41146102cb578063a22cb465146102e9578063a8ecc7f114610305578063b32c4d8d146103235761012c565b80633e4ee0a8116100f45780633e4ee0a8146101e757806342842e0e1461021757806357b9ebd114610233578063591afe071461024f5780636352211e1461026b5761012c565b806301ffc9a71461013157806306fdde0314610161578063081812fc1461017f578063095ea7b3146101af57806323b872dd146101cb575b600080fd5b61014b60048036038101906101469190612672565b61040c565b60405161015891906126ba565b60405180910390f35b6101696104ee565b6040516101769190612765565b60405180910390f35b610199600480360381019061019491906127bd565b610580565b6040516101a6919061282b565b60405180910390f35b6101c960048036038101906101c49190612872565b6105c6565b005b6101e560048036038101906101e091906128b2565b6106dd565b005b61020160048036038101906101fc919061293b565b61073d565b60405161020e919061298a565b60405180910390f35b610231600480360381019061022c91906128b2565b610762565b005b61024d6004803603810190610248919061293b565b610782565b005b610269600480360381019061026491906129d1565b610a9c565b005b610285600480360381019061028091906127bd565b610e04565b604051610292919061282b565b60405180910390f35b6102b560048036038101906102b09190612a24565b610e8a565b6040516102c2919061298a565b60405180910390f35b6102d3610f41565b6040516102e09190612765565b60405180910390f35b61030360048036038101906102fe9190612a51565b610fd3565b005b61030d610fe9565b60405161031a9190612af0565b60405180910390f35b61033d600480360381019061033891906127bd565b61100f565b60405161034f96959493929190612b1a565b60405180910390f35b610372600480360381019061036d9190612cb0565b611058565b005b61038e6004803603810190610389919061293b565b6110ba565b005b6103aa60048036038101906103a591906127bd565b6112a1565b6040516103b79190612765565b60405180910390f35b6103da60048036038101906103d59190612d33565b611309565b005b6103f660048036038101906103f19190612d86565b6116cf565b60405161040391906126ba565b60405180910390f35b60007f80ac58cd000000000000000000000000000000000000000000000000000000007bffffffffffffffffffffffffffffffffffffffffffffffffffffffff1916827bffffffffffffffffffffffffffffffffffffffffffffffffffffffff191614806104d757507f5b5e139f000000000000000000000000000000000000000000000000000000007bffffffffffffffffffffffffffffffffffffffffffffffffffffffff1916827bffffffffffffffffffffffffffffffffffffffffffffffffffffffff1916145b806104e757506104e682611763565b5b9050919050565b6060600080546104fd90612df5565b80601f016020809104026020016040519081016040528092919081815260200182805461052990612df5565b80156105765780601f1061054b57610100808354040283529160200191610576565b820191906000526020600020905b81548152906001019060200180831161055957829003601f168201915b5050505050905090565b600061058b826117cd565b6004600083815260200190815260200160002060009054906101000a900473ffffffffffffffffffffffffffffffffffffffff169050919050565b60006105d182610e04565b90508073ffffffffffffffffffffffffffffffffffffffff168373ffffffffffffffffffffffffffffffffffffffff1603610641576040517f08c379a000000000000000000000000000000000000000000000000000000000815260040161063890612e98565b60405180910390fd5b8073ffffffffffffffffffffffffffffffffffffffff16610660611818565b73ffffffffffffffffffffffffffffffffffffffff16148061068f575061068e81610689611818565b6116cf565b5b6106ce576040517f08c379a00000000000000000000000000000000000000000000000000000000081526004016106c590612f2a565b60405180910390fd5b6106d88383611820565b505050565b6106ee6106e8611818565b826118d9565b61072d576040517f08c379a000000000000000000000000000000000000000000000000000000000815260040161072490612fbc565b60405180910390fd5b61073883838361196e565b505050565b6008602052816000526040600020602052806000526040600020600091509150505481565b61077d83838360405180602001604052806000815250611058565b505050565b600660009054906101000a900473ffffffffffffffffffffffffffffffffffffffff1673ffffffffffffffffffffffffffffffffffffffff16633f029aaf6040518163ffffffff1660e01b8152600401602060405180830381865afa1580156107ef573d6000803e3d6000fd5b505050506040513d601f19601f820116820180604052508101906108139190612ff1565b600660009054906101000a900473ffffffffffffffffffffffffffffffffffffffff1673ffffffffffffffffffffffffffffffffffffffff166391d1485482336040518363ffffffff1660e01b815260040161087092919061301e565b602060405180830381865afa15801561088d573d6000803e3d6000fd5b505050506040513d601f19601f820116820180604052508101906108b1919061305c565b6108f0576040517f08c379a00000000000000000000000000000000000000000000000000000000081526004016108e7906130fb565b60405180910390fd5b60006007600085815260200190815260200160002090506000801b816004015403610950576040517f08c379a00000000000000000000000000000000000000000000000000000000081526004016109479061318d565b60405180910390fd5b600015158160050160009054906101000a900460ff161515146109a8576040517f08c379a000000000000000000000000000000000000000000000000000000000815260040161099f9061321f565b60405180910390fd5b82816002015403610a3e57806004015481600301819055506000801b8160040181905550426008600086815260200190815260200160002060008360030154815260200190815260200160002081905550837f1a89c682163ee54a55398b4f8403648366ee546595b48359fa702e8b16a0804382600301543342604051610a319392919061323f565b60405180910390a2610a96565b60018160050160006101000a81548160ff021916908315150217905550837fc7fe182d35ebb6f63e7a08f208ce83a4c93e2e18e1bad4d18c332c8540cbc08a3342604051610a8d929190613276565b60405180910390a25b50505050565b600660009054906101000a900473ffffffffffffffffffffffffffffffffffffffff1673ffffffffffffffffffffffffffffffffffffffff1663076cdbc26040518163ffffffff1660e01b8152600401602060405180830381865afa158015610b09573d6000803e3d6000fd5b505050506040513d601f19601f82011682018060405250810190610b2d9190612ff1565b600660009054906101000a900473ffffffffffffffffffffffffffffffffffffffff1673ffffffffffffffffffffffffffffffffffffffff166391d1485482336040518363ffffffff1660e01b8152600401610b8a92919061301e565b602060405180830381865afa158015610ba7573d6000803e3d6000fd5b505050506040513d601f19601f82011682018060405250810190610bcb919061305c565b610c0a576040517f08c379a0000000000000000000000000000000000000000000000000000000008152600401610c01906130fb565b60405180910390fd5b6000600760008681526020019081526020016000209050600115158160050160009054906101000a900460ff16151514610c79576040517f08c379a0000000000000000000000000000000000000000000000000000000008152600401610c7090613311565b60405180910390fd5b8315610d1f57610c8885611c67565b6007600086815260200190815260200160002060008082016000905560018201600090556002820160009055600382016000905560048201600090556005820160006101000a81549060ff02191690555050847fed4d34d21fb548046ba733f1518ff746dd6189964359091a4cd4f55d2c6ce8ad60016000801b42604051610d1293929190613331565b60405180910390a2610dfd565b6000801b8303610d64576040517f08c379a0000000000000000000000000000000000000000000000000000000008152600401610d5b90613400565b60405180910390fd5b60008160050160006101000a81548160ff0219169083151502179055508281600301819055506000801b81600401819055504260086000878152602001908152602001600020600085815260200190815260200160002081905550847fed4d34d21fb548046ba733f1518ff746dd6189964359091a4cd4f55d2c6ce8ad60008542604051610df493929190613331565b60405180910390a25b5050505050565b600080610e1083611db5565b9050600073ffffffffffffffffffffffffffffffffffffffff168173ffffffffffffffffffffffffffffffffffffffff1603610e81576040517f08c379a0000000000000000000000000000000000000000000000000000000008152600401610e789061346c565b60405180910390fd5b80915050919050565b60008073ffffffffffffffffffffffffffffffffffffffff168273ffffffffffffffffffffffffffffffffffffffff1603610efa576040517f08c379a0000000000000000000000000000000000000000000000000000000008152600401610ef1906134fe565b60405180910390fd5b600360008373ffffffffffffffffffffffffffffffffffffffff1673ffffffffffffffffffffffffffffffffffffffff168152602001908152602001600020549050919050565b606060018054610f5090612df5565b80601f0160208091040260200160405190810160405280929190818152602001828054610f7c90612df5565b8015610fc95780601f10610f9e57610100808354040283529160200191610fc9565b820191906000526020600020905b815481529060010190602001808311610fac57829003601f168201915b5050505050905090565b610fe5610fde611818565b8383611df2565b5050565b600660009054906101000a900473ffffffffffffffffffffffffffffffffffffffff1681565b60076020528060005260406000206000915090508060000154908060010154908060020154908060030154908060040154908060050160009054906101000a900460ff16905086565b611069611063611818565b836118d9565b6110a8576040517f08c379a000000000000000000000000000000000000000000000000000000000815260040161109f90612fbc565b60405180910390fd5b6110b484848484611f5e565b50505050565b6000600760008481526020019081526020016000209050600660009054906101000a900473ffffffffffffffffffffffffffffffffffffffff1673ffffffffffffffffffffffffffffffffffffffff166391d148548260030154336040518363ffffffff1660e01b815260040161113292919061301e565b602060405180830381865afa15801561114f573d6000803e3d6000fd5b505050506040513d601f19601f82011682018060405250810190611173919061305c565b6111b2576040517f08c379a00000000000000000000000000000000000000000000000000000000081526004016111a990613590565b60405180910390fd5b600015158160050160009054906101000a900460ff1615151461120a576040517f08c379a000000000000000000000000000000000000000000000000000000000815260040161120190613622565b60405180910390fd5b6000801b816004015414611253576040517f08c379a000000000000000000000000000000000000000000000000000000000815260040161124a906136b4565b60405180910390fd5b818160040181905550827ffc276cb47cb31a23d3acc26b1cea403cb90bc846f14ff61ec42c3d88a600d9aa82600301548442604051611294939291906136d4565b60405180910390a2505050565b60606112ac826117cd565b60006112b6611fba565b905060008151116112d65760405180602001604052806000815250611301565b806112e084611fd1565b6040516020016112f1929190613747565b6040516020818303038152906040525b915050919050565b600660009054906101000a900473ffffffffffffffffffffffffffffffffffffffff1673ffffffffffffffffffffffffffffffffffffffff166302f93f2c6040518163ffffffff1660e01b8152600401602060405180830381865afa158015611376573d6000803e3d6000fd5b505050506040513d601f19601f8201168201806040525081019061139a9190612ff1565b8114806114365750600660009054906101000a900473ffffffffffffffffffffffffffffffffffffffff1673ffffffffffffffffffffffffffffffffffffffff166343f95f446040518163ffffffff1660e01b8152600401602060405180830381865afa15801561140f573d6000803e3d6000fd5b505050506040513d601f19601f820116820180604052508101906114339190612ff1565b81145b611475576040517f08c379a000000000000000000000000000000000000000000000000000000000815260040161146c906137dd565b60405180910390fd5b600660009054906101000a900473ffffffffffffffffffffffffffffffffffffffff1673ffffffffffffffffffffffffffffffffffffffff166391d1485482336040518363ffffffff1660e01b81526004016114d292919061301e565b602060405180830381865afa1580156114ef573d6000803e3d6000fd5b505050506040513d601f19601f82011682018060405250810190611513919061305c565b611552576040517f08c379a00000000000000000000000000000000000000000000000000000000081526004016115499061386f565b60405180910390fd5b60006007600085815260200190815260200160002060010154146115ab576040517f08c379a00000000000000000000000000000000000000000000000000000000081526004016115a290613901565b60405180910390fd5b6115b5338461209f565b6040518060c001604052808481526020014281526020018381526020018281526020016000801b81526020016000151581525060076000858152602001908152602001600020600082015181600001556020820151816001015560408201518160020155606082015181600301556080820151816004015560a08201518160050160006101000a81548160ff02191690831515021790555090505042600860008581526020019081526020016000206000838152602001908152602001600020819055503373ffffffffffffffffffffffffffffffffffffffff16837f81555432c446b05bd6e5f8b678d7a60c8a5e9b5d1d82701d0f1972435d99ca1d84426040516116c2929190613921565b60405180910390a3505050565b6000600560008473ffffffffffffffffffffffffffffffffffffffff1673ffffffffffffffffffffffffffffffffffffffff16815260200190815260200160002060008373ffffffffffffffffffffffffffffffffffffffff1673ffffffffffffffffffffffffffffffffffffffff16815260200190815260200160002060009054906101000a900460ff16905092915050565b60007f01ffc9a7000000000000000000000000000000000000000000000000000000007bffffffffffffffffffffffffffffffffffffffffffffffffffffffff1916827bffffffffffffffffffffffffffffffffffffffffffffffffffffffff1916149050919050565b6117d6816122bc565b611815576040517f08c379a000000000000000000000000000000000000000000000000000000000815260040161180c9061346c565b60405180910390fd5b50565b600033905090565b816004600083815260200190815260200160002060006101000a81548173ffffffffffffffffffffffffffffffffffffffff021916908373ffffffffffffffffffffffffffffffffffffffff160217905550808273ffffffffffffffffffffffffffffffffffffffff1661189383610e04565b73ffffffffffffffffffffffffffffffffffffffff167f8c5be1e5ebec7d5bd14f71427d1e84f3dd0314c0f7b2291e5b200ac8c7c3b92560405160405180910390a45050565b6000806118e583610e04565b90508073ffffffffffffffffffffffffffffffffffffffff168473ffffffffffffffffffffffffffffffffffffffff161480611927575061192681856116cf565b5b8061196557508373ffffffffffffffffffffffffffffffffffffffff1661194d84610580565b73ffffffffffffffffffffffffffffffffffffffff16145b91505092915050565b8273ffffffffffffffffffffffffffffffffffffffff1661198e82610e04565b73ffffffffffffffffffffffffffffffffffffffff16146119e4576040517f08c379a00000000000000000000000000000000000000000000000000000000081526004016119db906139bc565b60405180910390fd5b600073ffffffffffffffffffffffffffffffffffffffff168273ffffffffffffffffffffffffffffffffffffffff1603611a53576040517f08c379a0000000000000000000000000000000000000000000000000000000008152600401611a4a90613a4e565b60405180910390fd5b611a6083838360016122fd565b8273ffffffffffffffffffffffffffffffffffffffff16611a8082610e04565b73ffffffffffffffffffffffffffffffffffffffff1614611ad6576040517f08c379a0000000000000000000000000000000000000000000000000000000008152600401611acd906139bc565b60405180910390fd5b6004600082815260200190815260200160002060006101000a81549073ffffffffffffffffffffffffffffffffffffffff02191690556001600360008573ffffffffffffffffffffffffffffffffffffffff1673ffffffffffffffffffffffffffffffffffffffff168152602001908152602001600020600082825403925050819055506001600360008473ffffffffffffffffffffffffffffffffffffffff1673ffffffffffffffffffffffffffffffffffffffff16815260200190815260200160002060008282540192505081905550816002600083815260200190815260200160002060006101000a81548173ffffffffffffffffffffffffffffffffffffffff021916908373ffffffffffffffffffffffffffffffffffffffff160217905550808273ffffffffffffffffffffffffffffffffffffffff168473ffffffffffffffffffffffffffffffffffffffff167fddf252ad1be2c89b69c2b068fc378daa952ba7f163c4a11628f55a4df523b3ef60405160405180910390a4611c628383836001612303565b505050565b6000611c7282610e04565b9050611c828160008460016122fd565b611c8b82610e04565b90506004600083815260200190815260200160002060006101000a81549073ffffffffffffffffffffffffffffffffffffffff02191690556001600360008373ffffffffffffffffffffffffffffffffffffffff1673ffffffffffffffffffffffffffffffffffffffff168152602001908152602001600020600082825403925050819055506002600083815260200190815260200160002060006101000a81549073ffffffffffffffffffffffffffffffffffffffff021916905581600073ffffffffffffffffffffffffffffffffffffffff168273ffffffffffffffffffffffffffffffffffffffff167fddf252ad1be2c89b69c2b068fc378daa952ba7f163c4a11628f55a4df523b3ef60405160405180910390a4611db1816000846001612303565b5050565b60006002600083815260200190815260200160002060009054906101000a900473ffffffffffffffffffffffffffffffffffffffff169050919050565b8173ffffffffffffffffffffffffffffffffffffffff168373ffffffffffffffffffffffffffffffffffffffff1603611e60576040517f08c379a0000000000000000000000000000000000000000000000000000000008152600401611e5790613aba565b60405180910390fd5b80600560008573ffffffffffffffffffffffffffffffffffffffff1673ffffffffffffffffffffffffffffffffffffffff16815260200190815260200160002060008473ffffffffffffffffffffffffffffffffffffffff1673ffffffffffffffffffffffffffffffffffffffff16815260200190815260200160002060006101000a81548160ff0219169083151502179055508173ffffffffffffffffffffffffffffffffffffffff168373ffffffffffffffffffffffffffffffffffffffff167f17307eab39ab6107e8899845ad3d59bd9653f200f220920489ca2b5937696c3183604051611f5191906126ba565b60405180910390a3505050565b611f6984848461196e565b611f7584848484612309565b611fb4576040517f08c379a0000000000000000000000000000000000000000000000000000000008152600401611fab90613b4c565b60405180910390fd5b50505050565b606060405180602001604052806000815250905090565b606060006001611fe084612490565b01905060008167ffffffffffffffff811115611fff57611ffe612b85565b5b6040519080825280601f01601f1916602001820160405280156120315781602001600182028036833780820191505090505b509050600082602001820190505b600115612094578080600190039150507f3031323334353637383961626364656600000000000000000000000000000000600a86061a8153600a858161208857612087613b6c565b5b0494506000850361203f575b819350505050919050565b600073ffffffffffffffffffffffffffffffffffffffff168273ffffffffffffffffffffffffffffffffffffffff160361210e576040517f08c379a000000000000000000000000000000000000000000000000000000000815260040161210590613be7565b60405180910390fd5b612117816122bc565b15612157576040517f08c379a000000000000000000000000000000000000000000000000000000000815260040161214e90613c53565b60405180910390fd5b6121656000838360016122fd565b61216e816122bc565b156121ae576040517f08c379a00000000000000000000000000000000000000000000000000000000081526004016121a590613c53565b60405180910390fd5b6001600360008473ffffffffffffffffffffffffffffffffffffffff1673ffffffffffffffffffffffffffffffffffffffff16815260200190815260200160002060008282540192505081905550816002600083815260200190815260200160002060006101000a81548173ffffffffffffffffffffffffffffffffffffffff021916908373ffffffffffffffffffffffffffffffffffffffff160217905550808273ffffffffffffffffffffffffffffffffffffffff16600073ffffffffffffffffffffffffffffffffffffffff167fddf252ad1be2c89b69c2b068fc378daa952ba7f163c4a11628f55a4df523b3ef60405160405180910390a46122b8600083836001612303565b5050565b60008073ffffffffffffffffffffffffffffffffffffffff166122de83611db5565b73ffffffffffffffffffffffffffffffffffffffff1614159050919050565b50505050565b50505050565b600061232a8473ffffffffffffffffffffffffffffffffffffffff166125e3565b15612483578373ffffffffffffffffffffffffffffffffffffffff1663150b7a02612353611818565b8786866040518563ffffffff1660e01b81526004016123759493929190613cc8565b6020604051808303816000875af19250505080156123b157506040513d601f19601f820116820180604052508101906123ae9190613d29565b60015b612433573d80600081146123e1576040519150601f19603f3d011682016040523d82523d6000602084013e6123e6565b606091505b50600081510361242b576040517f08c379a000000000000000000000000000000000000000000000000000000000815260040161242290613b4c565b60405180910390fd5b805181602001fd5b63150b7a0260e01b7bffffffffffffffffffffffffffffffffffffffffffffffffffffffff1916817bffffffffffffffffffffffffffffffffffffffffffffffffffffffff191614915050612488565b600190505b949350505050565b600080600090507a184f03e93ff9f4daa797ed6e38ed64bf6a1f01000000000000000083106124ee577a184f03e93ff9f4daa797ed6e38ed64bf6a1f01000000000000000083816124e4576124e3613b6c565b5b0492506040810190505b6d04ee2d6d415b85acef8100000000831061252b576d04ee2d6d415b85acef8100000000838161252157612520613b6c565b5b0492506020810190505b662386f26fc10000831061255a57662386f26fc1000083816125505761254f613b6c565b5b0492506010810190505b6305f5e1008310612583576305f5e100838161257957612578613b6c565b5b0492506008810190505b61271083106125a857612710838161259e5761259d613b6c565b5b0492506004810190505b606483106125cb57606483816125c1576125c0613b6c565b5b0492506002810190505b600a83106125da576001810190505b80915050919050565b6000808273ffffffffffffffffffffffffffffffffffffffff163b119050919050565b6000604051905090565b600080fd5b600080fd5b60007fffffffff0000000000000000000000000000000000000000000000000000000082169050919050565b61264f8161261a565b811461265a57600080fd5b50565b60008135905061266c81612646565b92915050565b60006020828403121561268857612687612610565b5b60006126968482850161265d565b91505092915050565b60008115159050919050565b6126b48161269f565b82525050565b60006020820190506126cf60008301846126ab565b92915050565b600081519050919050565b600082825260208201905092915050565b60005b8381101561270f5780820151818401526020810190506126f4565b60008484015250505050565b6000601f19601f8301169050919050565b6000612737826126d5565b61274181856126e0565b93506127518185602086016126f1565b61275a8161271b565b840191505092915050565b6000602082019050818103600083015261277f818461272c565b905092915050565b6000819050919050565b61279a81612787565b81146127a557600080fd5b50565b6000813590506127b781612791565b92915050565b6000602082840312156127d3576127d2612610565b5b60006127e1848285016127a8565b91505092915050565b600073ffffffffffffffffffffffffffffffffffffffff82169050919050565b6000612815826127ea565b9050919050565b6128258161280a565b82525050565b6000602082019050612840600083018461281c565b92915050565b61284f8161280a565b811461285a57600080fd5b50565b60008135905061286c81612846565b92915050565b6000806040838503121561288957612888612610565b5b60006128978582860161285d565b92505060206128a8858286016127a8565b9150509250929050565b6000806000606084860312156128cb576128ca612610565b5b60006128d98682870161285d565b93505060206128ea8682870161285d565b92505060406128fb868287016127a8565b9150509250925092565b6000819050919050565b61291881612905565b811461292357600080fd5b50565b6000813590506129358161290f565b92915050565b6000806040838503121561295257612951612610565b5b6000612960858286016127a8565b925050602061297185828601612926565b9150509250929050565b61298481612787565b82525050565b600060208201905061299f600083018461297b565b92915050565b6129ae8161269f565b81146129b957600080fd5b50565b6000813590506129cb816129a5565b92915050565b6000806000606084860312156129ea576129e9612610565b5b60006129f8868287016127a8565b9350506020612a09868287016129bc565b9250506040612a1a86828701612926565b9150509250925092565b600060208284031215612a3a57612a39612610565b5b6000612a488482850161285d565b91505092915050565b60008060408385031215612a6857612a67612610565b5b6000612a768582860161285d565b9250506020612a87858286016129bc565b9150509250929050565b6000819050919050565b6000612ab6612ab1612aac846127ea565b612a91565b6127ea565b9050919050565b6000612ac882612a9b565b9050919050565b6000612ada82612abd565b9050919050565b612aea81612acf565b82525050565b6000602082019050612b056000830184612ae1565b92915050565b612b1481612905565b82525050565b600060c082019050612b2f600083018961297b565b612b3c602083018861297b565b612b496040830187612b0b565b612b566060830186612b0b565b612b636080830185612b0b565b612b7060a08301846126ab565b979650505050505050565b600080fd5b600080fd5b7f4e487b7100000000000000000000000000000000000000000000000000000000600052604160045260246000fd5b612bbd8261271b565b810181811067ffffffffffffffff82111715612bdc57612bdb612b85565b5b80604052505050565b6000612bef612606565b9050612bfb8282612bb4565b919050565b600067ffffffffffffffff821115612c1b57612c1a612b85565b5b612c248261271b565b9050602081019050919050565b82818337600083830152505050565b6000612c53612c4e84612c00565b612be5565b905082815260208101848484011115612c6f57612c6e612b80565b5b612c7a848285612c31565b509392505050565b600082601f830112612c9757612c96612b7b565b5b8135612ca7848260208601612c40565b91505092915050565b60008060008060808587031215612cca57612cc9612610565b5b6000612cd88782880161285d565b9450506020612ce98782880161285d565b9350506040612cfa878288016127a8565b925050606085013567ffffffffffffffff811115612d1b57612d1a612615565b5b612d2787828801612c82565b91505092959194509250565b600080600060608486031215612d4c57612d4b612610565b5b6000612d5a868287016127a8565b9350506020612d6b86828701612926565b9250506040612d7c86828701612926565b9150509250925092565b60008060408385031215612d9d57612d9c612610565b5b6000612dab8582860161285d565b9250506020612dbc8582860161285d565b9150509250929050565b7f4e487b7100000000000000000000000000000000000000000000000000000000600052602260045260246000fd5b60006002820490506001821680612e0d57607f821691505b602082108103612e2057612e1f612dc6565b5b50919050565b7f4552433732313a20617070726f76616c20746f2063757272656e74206f776e6560008201527f7200000000000000000000000000000000000000000000000000000000000000602082015250565b6000612e826021836126e0565b9150612e8d82612e26565b604082019050919050565b60006020820190508181036000830152612eb181612e75565b9050919050565b7f4552433732313a20617070726f76652063616c6c6572206973206e6f7420746f60008201527f6b656e206f776e6572206f7220617070726f76656420666f7220616c6c000000602082015250565b6000612f14603d836126e0565b9150612f1f82612eb8565b604082019050919050565b60006020820190508181036000830152612f4381612f07565b9050919050565b7f4552433732313a2063616c6c6572206973206e6f7420746f6b656e206f776e6560008201527f72206f7220617070726f76656400000000000000000000000000000000000000602082015250565b6000612fa6602d836126e0565b9150612fb182612f4a565b604082019050919050565b60006020820190508181036000830152612fd581612f99565b9050919050565b600081519050612feb8161290f565b92915050565b60006020828403121561300757613006612610565b5b600061301584828501612fdc565b91505092915050565b60006040820190506130336000830185612b0b565b613040602083018461281c565b9392505050565b600081519050613056816129a5565b92915050565b60006020828403121561307257613071612610565b5b600061308084828501613047565b91505092915050565b7f4163636573732044656e6965643a20596f7520646f206e6f742068617665207460008201527f6865207265717569726564205242414320636c656172616e63652e0000000000602082015250565b60006130e5603b836126e0565b91506130f082613089565b604082019050919050565b60006020820190508181036000830152613114816130d8565b9050919050565b7f566572696669636174696f6e204572726f723a204e6f207472616e736665722060008201527f696e2070726f67726573732e0000000000000000000000000000000000000000602082015250565b6000613177602c836126e0565b91506131828261311b565b604082019050919050565b600060208201905081810360008301526131a68161316a565b9050919050565b7f5472616e736665722046726f7a656e3a20416c726561647920666c616767656460008201527f20666f7220616d626967756974792e0000000000000000000000000000000000602082015250565b6000613209602f836126e0565b9150613214826131ad565b604082019050919050565b60006020820190508181036000830152613238816131fc565b9050919050565b60006060820190506132546000830186612b0b565b613261602083018561281c565b61326e604083018461297b565b949350505050565b600060408201905061328b600083018561281c565b613298602083018461297b565b9392505050565b7f5265736f6c7574696f6e204572726f723a20546869732062617463682069732060008201527f6e6f742063757272656e746c7920666c61676765642e00000000000000000000602082015250565b60006132fb6036836126e0565b91506133068261329f565b604082019050919050565b6000602082019050818103600083015261332a816132ee565b9050919050565b600060608201905061334660008301866126ab565b6133536020830185612b0b565b613360604083018461297b565b949350505050565b7f5265736f6c7574696f6e204572726f723a204d7573742070726f76696465206160008201527f2076616c6964206c6f636174696f6e20746f2073656e642074686520756e667260208201527f6f7a656e2062617463682e000000000000000000000000000000000000000000604082015250565b60006133ea604b836126e0565b91506133f582613368565b606082019050919050565b60006020820190508181036000830152613419816133dd565b9050919050565b7f4552433732313a20696e76616c696420746f6b656e2049440000000000000000600082015250565b60006134566018836126e0565b915061346182613420565b602082019050919050565b6000602082019050818103600083015261348581613449565b9050919050565b7f4552433732313a2061646472657373207a65726f206973206e6f74206120766160008201527f6c6964206f776e65720000000000000000000000000000000000000000000000602082015250565b60006134e86029836126e0565b91506134f38261348c565b604082019050919050565b60006020820190508181036000830152613517816134db565b9050919050565b7f4163636573732044656e6965643a20596f7520646f206e6f742068617665206360008201527f7573746f6479206f6620746869732062617463682e0000000000000000000000602082015250565b600061357a6035836126e0565b91506135858261351e565b604082019050919050565b600060208201905081810360008301526135a98161356d565b9050919050565b7f5472616e736665722046726f7a656e3a2054686973206261746368206973207560008201527f6e64657220696e7665737469676174696f6e2e00000000000000000000000000602082015250565b600061360c6033836126e0565b9150613617826135b0565b604082019050919050565b6000602082019050818103600083015261363b816135ff565b9050919050565b7f5472616e73666572204572726f723a2041207472616e7366657220697320616c60008201527f726561647920696e2070726f67726573732e0000000000000000000000000000602082015250565b600061369e6032836126e0565b91506136a982613642565b604082019050919050565b600060208201905081810360008301526136cd81613691565b9050919050565b60006060820190506136e96000830186612b0b565b6136f66020830185612b0b565b613703604083018461297b565b949350505050565b600081905092915050565b6000613721826126d5565b61372b818561370b565b935061373b8185602086016126f1565b80840191505092915050565b60006137538285613716565b915061375f8284613716565b91508190509392505050565b7f4f726967696e204572726f723a204d757374206f726967696e6174652066726f60008201527f6d20612072617720737570706c69657200000000000000000000000000000000602082015250565b60006137c76030836126e0565b91506137d28261376b565b604082019050919050565b600060208201905081810360008301526137f6816137ba565b9050919050565b7f4163636573732044656e6965643a20596f7520646f206e6f742068617665207460008201527f6865206465636c6172656420737570706c69657220636c656172616e63652e00602082015250565b6000613859603f836126e0565b9150613864826137fd565b604082019050919050565b600060208201905081810360008301526138888161384c565b9050919050565b7f536563757269747920416c6572743a205468697320426174636820494420616c60008201527f7265616479206578697374732100000000000000000000000000000000000000602082015250565b60006138eb602d836126e0565b91506138f68261388f565b604082019050919050565b6000602082019050818103600083015261391a816138de565b9050919050565b60006040820190506139366000830185612b0b565b613943602083018461297b565b9392505050565b7f4552433732313a207472616e736665722066726f6d20696e636f72726563742060008201527f6f776e6572000000000000000000000000000000000000000000000000000000602082015250565b60006139a66025836126e0565b91506139b18261394a565b604082019050919050565b600060208201905081810360008301526139d581613999565b9050919050565b7f4552433732313a207472616e7366657220746f20746865207a65726f2061646460008201527f7265737300000000000000000000000000000000000000000000000000000000602082015250565b6000613a386024836126e0565b9150613a43826139dc565b604082019050919050565b60006020820190508181036000830152613a6781613a2b565b9050919050565b7f4552433732313a20617070726f766520746f2063616c6c657200000000000000600082015250565b6000613aa46019836126e0565b9150613aaf82613a6e565b602082019050919050565b60006020820190508181036000830152613ad381613a97565b9050919050565b7f4552433732313a207472616e7366657220746f206e6f6e20455243373231526560008201527f63656976657220696d706c656d656e7465720000000000000000000000000000602082015250565b6000613b366032836126e0565b9150613b4182613ada565b604082019050919050565b60006020820190508181036000830152613b6581613b29565b9050919050565b7f4e487b7100000000000000000000000000000000000000000000000000000000600052601260045260246000fd5b7f4552433732313a206d696e7420746f20746865207a65726f2061646472657373600082015250565b6000613bd16020836126e0565b9150613bdc82613b9b565b602082019050919050565b60006020820190508181036000830152613c0081613bc4565b9050919050565b7f4552433732313a20746f6b656e20616c7265616479206d696e74656400000000600082015250565b6000613c3d601c836126e0565b9150613c4882613c07565b602082019050919050565b60006020820190508181036000830152613c6c81613c30565b9050919050565b600081519050919050565b600082825260208201905092915050565b6000613c9a82613c73565b613ca48185613c7e565b9350613cb48185602086016126f1565b613cbd8161271b565b840191505092915050565b6000608082019050613cdd600083018761281c565b613cea602083018661281c565b613cf7604083018561297b565b8181036060830152613d098184613c8f565b905095945050505050565b600081519050613d2381612646565b92915050565b600060208284031215613d3f57613d3e612610565b5b6000613d4d84828501613d14565b9150509291505056fea2646970667358221220c4c1f040301fd17f759936c721d8e903f0661813fbc626aafeaa0675634b7e3864736f6c63430008180033",
  "immutableReferences": {},
  "source": "// SPDX-License-Identifier: MIT\npragma solidity ^0.8.0;\n\n// We import the standard ERC721 token blueprint. This ensures our contract follows \n// the universal rules for Non-Fungible Tokens, making it secure and compatible.\nimport \"@openzeppelin/contracts/token/ERC721/ERC721.sol\";\n\n// We import the RBAC contract you already wrote. We need this to verify \n// if the person trying to interact with an asset actually has the required clearance.\nimport \"./RBAC.sol\";\n\ncontract AmmunitionAsset is ERC721 {\n\n    // We store a reference to your RBAC contract.\n    // This allows us to call `rbac.hasRole(...)` inside our asset functions.\n    RBAC public rbac;\n\n    // This is the core structure holding all classified data for a single physical batch.\n    struct BatchData {\n        uint256 batchId;          // A unique identifier for this specific crate of ammo.\n        uint256 manufactureDate;  // The Unix timestamp of when the batch was completed.\n        bytes32 secretHash;       // The cryptographic key generated off-chain by the manufacturer.\n        bytes32 currentLocation;  // The current RBAC role that holds custody (e.g., ROLE_INVENTORY).\n        bytes32 pendingLocation;  // The destination role this crate is currently traveling to.\n        bool isAmbiguous;         // A red-flag toggle. If true, the batch is frozen pending investigation.\n    }\n\n    // A mapping (dictionary/lookup-table) that connects a unique Token ID directly to its Batch Data.\n    mapping(uint256 => BatchData) public batches;\n\n    // A nested mapping specifically for tracking the exact timeline.\n    // It maps a Token ID -> to an RBAC Role -> to the exact timestamp it entered that node.\n    mapping(uint256 => mapping(bytes32 => uint256)) public nodeTimestamps;\n\n    event TransferInitiated(uint256 indexed batchId, bytes32 fromRole, bytes32 toRole, uint256 timestamp);\n    event TransferVerified(uint256 indexed batchId, bytes32 newLocation, address auditor, uint256 timestamp);\n    event AmbiguityFlagged(uint256 indexed batchId, address auditor, uint256 timestamp);\n    event AmbiguityResolved(uint256 indexed batchId, bool destroyed, bytes32 newLocation, uint256 timestamp);\n\n    // An event is like a public announcement on the blockchain. \n    // It's incredibly cheap to log, and your off-chain ML models will listen to these!\n    event BatchMinted(uint256 indexed batchId, address indexed minter, bytes32 secretHash, uint256 timestamp);\n    // The Constructor runs exactly ONCE when this contract is first deployed.\n    // We pass it the address of our already-deployed RBAC contract so they can talk.\n    constructor(address _rbacAddress) ERC721(\"DefenseAmmunition\", \"AMMO\") {\n        rbac = RBAC(_rbacAddress);\n    }\n    // This modifier acts like a security checkpoint. \n    // Before any code inside a function runs, this checks if the person has the right clearance.\n    modifier onlyRole(bytes32 role) {\n        require(rbac.hasRole(role, msg.sender), \"Access Denied: You do not have the required RBAC clearance.\");\n        _;\n    }\n\n    // The Mint Function: Creating the Raw Material Batch\n    // We pass in the specific _supplierRole (Chemical or Metallurgy) so we know EXACTLY what raw material this is.\n    function mintBatch(uint256 _batchId, bytes32 _secretHash, bytes32 _supplierRole) public {\n        \n        // Ensure they passed in a valid starting role\n        require(_supplierRole == rbac.ROLE_CHEMICAL_SUPPLIER() || _supplierRole == rbac.ROLE_METALLURGY_SUPPLIER(), \"Origin Error: Must originate from a raw supplier\");\n        \n        // Security Check: Does this person actually hold that role?\n        require(rbac.hasRole(_supplierRole, msg.sender), \"Access Denied: You do not have the declared supplier clearance.\");\n\n        // 1. Security Check: Make sure this Batch ID hasn't been used before.\n        require(batches[_batchId].manufactureDate == 0, \"Security Alert: This Batch ID already exists!\");\n        \n        // 2. We use OpenZeppelin's standard _mint to actually create the ERC721 Token.\n        _mint(msg.sender, _batchId);\n        \n        // 3. We record the classified physical data into our Ledger (the Struct).\n        batches[_batchId] = BatchData({\n            batchId: _batchId,\n            manufactureDate: block.timestamp, // The blockchain automatically grabs the exact current Unix time.\n            secretHash: _secretHash,          \n            currentLocation: _supplierRole,   // Custody starts precisely at the specific raw material Supplier.\n            pendingLocation: bytes32(0),      // Not moving anywhere yet.\n            isAmbiguous: false // It starts clean.\n        });\n        \n        // 4. We log the exact arrival time into our ML logistics tracker.\n        nodeTimestamps[_batchId][_supplierRole] = block.timestamp;\n        \n        // 5. We trigger the public announcement for off-chain servers to hear.\n        emit BatchMinted(_batchId, msg.sender, _secretHash, block.timestamp);\n    }\n\n    // Step 1 of Transfer: The current holder dispatches the shipment.\n    function initiateTransfer(uint256 _batchId, bytes32 _nextRole) public {\n        BatchData storage batch = batches[_batchId];\n\n        // Ensure you actually hold it and it's not frozen\n        require(rbac.hasRole(batch.currentLocation, msg.sender), \"Access Denied: You do not have custody of this batch.\");\n        require(batch.isAmbiguous == false, \"Transfer Frozen: This batch is under investigation.\");\n        require(batch.pendingLocation == bytes32(0), \"Transfer Error: A transfer is already in progress.\");\n\n        // We lock in the destination\n        batch.pendingLocation = _nextRole;\n\n        emit TransferInitiated(_batchId, batch.currentLocation, _nextRole, block.timestamp);\n    }\n\n    // Step 2 of Transfer: The border checkpoint. The Auditor checks if the physical specs match the digital record.\n    function auditorVerifyTransfer(uint256 _batchId, bytes32 _auditorComputedHash) public onlyRole(rbac.ROLE_AUDITOR()) {\n        BatchData storage batch = batches[_batchId];\n        \n        // Ensure there's actually a transfer waiting to be verified\n        require(batch.pendingLocation != bytes32(0), \"Verification Error: No transfer in progress.\");\n        require(batch.isAmbiguous == false, \"Transfer Frozen: Already flagged for ambiguity.\");\n\n        // The Ultimate Security Check: Does the hash generated at the border match the original Manufacturer's hash?\n        if (batch.secretHash == _auditorComputedHash) {\n            // SUCCESS! The physical crate is untouched.\n            batch.currentLocation = batch.pendingLocation; // Move it to the new Owner.\n            batch.pendingLocation = bytes32(0);            // Clear the lock.\n            \n            // Log the new timestamp for ML Latency tracking.\n            nodeTimestamps[_batchId][batch.currentLocation] = block.timestamp;\n            \n            emit TransferVerified(_batchId, batch.currentLocation, msg.sender, block.timestamp);\n        } else {\n            // ALERT! The hashes don't match. The physical crate was tampered with!\n            batch.isAmbiguous = true;\n            emit AmbiguityFlagged(_batchId, msg.sender, block.timestamp);\n        }\n    }\n\n    // Step 3 (Emergency): Dispute Resolution for Fraud/Tampering\n    function resolveAmbiguity(uint256 _batchId, bool _destroyBatch, bytes32 _overrideLocation) public onlyRole(rbac.ROLE_COMMAND()) {\n        BatchData storage batch = batches[_batchId];\n        \n        // Ensure the batch is currently frozen under investigation\n        require(batch.isAmbiguous == true, \"Resolution Error: This batch is not currently flagged.\");\n\n        if (_destroyBatch) {\n            // The tampering was confirmed. The batch is destroyed/burned.\n            _burn(_batchId); // OpenZeppelin's built-in function permanently destroys the token.\n            delete batches[_batchId]; // Wipe the struct data to secure the ledger.\n            \n            emit AmbiguityResolved(_batchId, true, bytes32(0), block.timestamp);\n        } else {\n            // False alarm or clerical error. The Commander unfreezes it to a specific location.\n            require(_overrideLocation != bytes32(0), \"Resolution Error: Must provide a valid location to send the unfrozen batch.\");\n            \n            batch.isAmbiguous = false;\n            batch.currentLocation = _overrideLocation;\n            batch.pendingLocation = bytes32(0); // Clear any old pending locks\n            \n            nodeTimestamps[_batchId][_overrideLocation] = block.timestamp;\n            \n            emit AmbiguityResolved(_batchId, false, _overrideLocation, block.timestamp);\n        }\n    }\n}\n",
  "sourcePath": "C:\\Users\\Asus\\Desktop\\defence-blockchain-ml\\defence-blockchain-machinelearning\\smart-contracts\\contracts\\AmmunitionAsset.sol",
  "compiler": {
    "name": "solc",
    "version": "0.8.24+commit.e11b9ed9.Emscripten.clang"
  },
  "schemaVersion": "3.4.16",
  "updatedAt": "2026-04-10T09:35:45.442Z",
  "networkType": "ethereum",
  "devdoc": {
    "events": {
      "Approval(address,address,uint256)": {
        "details": "Emitted when `owner` enables `approved` to manage the `tokenId` token."
      },
      "ApprovalForAll(address,address,bool)": {
        "details": "Emitted when `owner` enables or disables (`approved`) `operator` to manage all of its assets."
      },
      "Transfer(address,address,uint256)": {
        "details": "Emitted when `tokenId` token is transferred from `from` to `to`."
      }
    },
    "kind": "dev",
    "methods": {
      "approve(address,uint256)": {
        "details": "See {IERC721-approve}."
      },
      "balanceOf(address)": {
        "details": "See {IERC721-balanceOf}."
      },
      "getApproved(uint256)": {
        "details": "See {IERC721-getApproved}."
      },
      "isApprovedForAll(address,address)": {
        "details": "See {IERC721-isApprovedForAll}."
      },
      "name()": {
        "details": "See {IERC721Metadata-name}."
      },
      "ownerOf(uint256)": {
        "details": "See {IERC721-ownerOf}."
      },
      "safeTransferFrom(address,address,uint256)": {
        "details": "See {IERC721-safeTransferFrom}."
      },
      "safeTransferFrom(address,address,uint256,bytes)": {
        "details": "See {IERC721-safeTransferFrom}."
      },
      "setApprovalForAll(address,bool)": {
        "details": "See {IERC721-setApprovalForAll}."
      },
      "supportsInterface(bytes4)": {
        "details": "See {IERC165-supportsInterface}."
      },
      "symbol()": {
        "details": "See {IERC721Metadata-symbol}."
      },
      "tokenURI(uint256)": {
        "details": "See {IERC721Metadata-tokenURI}."
      },
      "transferFrom(address,address,uint256)": {
        "details": "See {IERC721-transferFrom}."
      }
    },
    "version": 1
  },
  "userdoc": {
    "kind": "user",
    "methods": {},
    "version": 1
  }
}