{
  "contractName": "RBAC",
  "abi": [
    {
      "inputs": [],
      "stateMutability": "nonpayable",
      "type": "constructor"
    },
    {
      "anonymous": false,
      "inputs": [
        {
          "indexed": true,
          "internalType": "address",
          "name": "account",
          "type": "address"
        },
        {
          "indexed": false,
          "internalType": "bytes32",
          "name": "role",
          "type": "bytes32"
        }
      ],
      "name": "RoleAssigned",
      "type": "event"
    },
    {
      "anonymous": false,
      "inputs": [
        {
          "indexed": true,
          "internalType": "address",
          "name": "account",
          "type": "address"
        },
        {
          "indexed": false,
          "internalType": "bytes32",
          "name": "role",
          "type": "bytes32"
        }
      ],
      "name": "RoleRevoked",
      "type": "event"
    },
    {
      "inputs": [],
      "name": "ROLE_ASSEMBLER",
      "outputs": [
        {
          "internalType": "bytes32",
          "name": "",
          "type": "bytes32"
        }
      ],
      "stateMutability": "view",
      "type": "function",
      "constant": true
    },
    {
      "inputs": [],
      "name": "ROLE_AUDITOR",
      "outputs": [
        {
          "internalType": "bytes32",
          "name": "",
          "type": "bytes32"
        }
      ],
      "stateMutability": "view",
      "type": "function",
      "constant": true
    },
    {
      "inputs": [],
      "name": "ROLE_CHEMICAL_SUPPLIER",
      "outputs": [
        {
          "internalType": "bytes32",
          "name": "",
          "type": "bytes32"
        }
      ],
      "stateMutability": "view",
      "type": "function",
      "constant": true
    },
    {
      "inputs": [],
      "name": "ROLE_COMMAND",
      "outputs": [
        {
          "internalType": "bytes32",
          "name": "",
          "type": "bytes32"
        }
      ],
      "stateMutability": "view",
      "type": "function",
      "constant": true
    },
    {
      "inputs": [],
      "name": "ROLE_COMPANY",
      "outputs": [
        {
          "internalType": "bytes32",
          "name": "",
          "type": "bytes32"
        }
      ],
      "stateMutability": "view",
      "type": "function",
      "constant": true
    },
    {
      "inputs": [],
      "name": "ROLE_CORPS",
      "outputs": [
        {
          "internalType": "bytes32",
          "name": "",
          "type": "bytes32"
        }
      ],
      "stateMutability": "view",
      "type": "function",
      "constant": true
    },
    {
      "inputs": [],
      "name": "ROLE_DIVISION",
      "outputs": [
        {
          "internalType": "bytes32",
          "name": "",
          "type": "bytes32"
        }
      ],
      "stateMutability": "view",
      "type": "function",
      "constant": true
    },
    {
      "inputs": [],
      "name": "ROLE_INVENTORY",
      "outputs": [
        {
          "internalType": "bytes32",
          "name": "",
          "type": "bytes32"
        }
      ],
      "stateMutability": "view",
      "type": "function",
      "constant": true
    },
    {
      "inputs": [],
      "name": "ROLE_MANUFACTURER",
      "outputs": [
        {
          "internalType": "bytes32",
          "name": "",
          "type": "bytes32"
        }
      ],
      "stateMutability": "view",
      "type": "function",
      "constant": true
    },
    {
      "inputs": [],
      "name": "ROLE_METALLURGY_SUPPLIER",
      "outputs": [
        {
          "internalType": "bytes32",
          "name": "",
          "type": "bytes32"
        }
      ],
      "stateMutability": "view",
      "type": "function",
      "constant": true
    },
    {
      "inputs": [],
      "name": "ROLE_QUALITY_CONTROL",
      "outputs": [
        {
          "internalType": "bytes32",
          "name": "",
          "type": "bytes32"
        }
      ],
      "stateMutability": "view",
      "type": "function",
      "constant": true
    },
    {
      "inputs": [],
      "name": "ROLE_REGIMENT",
      "outputs": [
        {
          "internalType": "bytes32",
          "name": "",
          "type": "bytes32"
        }
      ],
      "stateMutability": "view",
      "type": "function",
      "constant": true
    },
    {
      "inputs": [
        {
          "internalType": "bytes32",
          "name": "",
          "type": "bytes32"
        },
        {
          "internalType": "address",
          "name": "",
          "type": "address"
        }
      ],
      "name": "roles",
      "outputs": [
        {
          "internalType": "bool",
          "name": "",
          "type": "bool"
        }
      ],
      "stateMutability": "view",
      "type": "function",
      "constant": true
    },
    {
      "inputs": [],
      "name": "systemAdmin",
      "outputs": [
        {
          "internalType": "address",
          "name": "",
          "type": "address"
        }
      ],
      "stateMutability": "view",
      "type": "function",
      "constant": true
    },
    {
      "inputs": [
        {
          "internalType": "address",
          "name": "account",
          "type": "address"
        },
        {
          "internalType": "bytes32",
          "name": "role",
          "type": "bytes32"
        }
      ],
      "name": "assignRole",
      "outputs": [],
      "stateMutability": "nonpayable",
      "type": "function"
    },
    {
      "inputs": [
        {
          "internalType": "address",
          "name": "account",
          "type": "address"
        },
        {
          "internalType": "bytes32",
          "name": "role",
          "type": "bytes32"
        }
      ],
      "name": "revokeRole",
      "outputs": [],
      "stateMutability": "nonpayable",
      "type": "function"
    },
    {
      "inputs": [
        {
          "internalType": "bytes32",
          "name": "role",
          "type": "bytes32"
        },
        {
          "internalType": "address",
          "name": "account",
          "type": "address"
        }
      ],
      "name": "hasRole",
      "outputs": [
        {
          "internalType": "bool",
          "name": "",
          "type": "bool"
        }
      ],
      "stateMutability": "view",
      "type": "function",
      "constant": true
    }
  ],
  "bytecode": "0x608060405234801561001057600080fd5b5033600160006101000a81548173ffffffffffffffffffffffffffffffffffffffff021916908373ffffffffffffffffffffffffffffffffffffffff16021790555060016000807fba8fbb1f529827cdf1c053a267d096d8548edcdbacbe59aaad3ac859c2b9012c815260200190815260200160002060003373ffffffffffffffffffffffffffffffffffffffff1673ffffffffffffffffffffffffffffffffffffffff16815260200190815260200160002060006101000a81548160ff021916908315150217905550610adc806100e96000396000f3fe608060405234801561001057600080fd5b506004361061010b5760003560e01c806391d14854116100a2578063d84691cd11610071578063d84691cd14610286578063e9ac2d8b146102a4578063f3d7f98a146102c2578063f741cca1146102e0578063f8fc08b9146102fe5761010b565b806391d14854146101fc578063a239e33d1461022c578063a5af00751461024a578063c370cfdc146102685761010b565b80633f029aaf116100de5780633f029aaf1461018457806343f95f44146101a257806362769f6c146101c057806364836e83146101de5761010b565b806302f93f2c14610110578063076cdbc21461012e5780631d9486de1461014c578063208dd1ff14610168575b600080fd5b61011861032e565b604051610125919061089f565b60405180910390f35b610136610352565b604051610143919061089f565b60405180910390f35b61016660048036038101906101619190610949565b610376565b005b610182600480360381019061017d9190610949565b6104ec565b005b61018c610662565b604051610199919061089f565b60405180910390f35b6101aa610686565b6040516101b7919061089f565b60405180910390f35b6101c86106aa565b6040516101d5919061089f565b60405180910390f35b6101e66106ce565b6040516101f3919061089f565b60405180910390f35b61021660048036038101906102119190610989565b6106f2565b60405161022391906109e4565b60405180910390f35b610234610759565b6040516102419190610a0e565b60405180910390f35b61025261077f565b60405161025f919061089f565b60405180910390f35b6102706107a3565b60405161027d919061089f565b60405180910390f35b61028e6107c7565b60405161029b919061089f565b60405180910390f35b6102ac6107eb565b6040516102b9919061089f565b60405180910390f35b6102ca61080f565b6040516102d7919061089f565b60405180910390f35b6102e8610833565b6040516102f5919061089f565b60405180910390f35b61031860048036038101906103139190610989565b610857565b60405161032591906109e4565b60405180910390f35b7f67bc5f732e919375b69e17b4ec9ac63819dfcdb3453f4b3081933fe4bcb8121c81565b7fba8fbb1f529827cdf1c053a267d096d8548edcdbacbe59aaad3ac859c2b9012c81565b6000807fba8fbb1f529827cdf1c053a267d096d8548edcdbacbe59aaad3ac859c2b9012c815260200190815260200160002060003373ffffffffffffffffffffffffffffffffffffffff1673ffffffffffffffffffffffffffffffffffffffff16815260200190815260200160002060009054906101000a900460ff16610432576040517f08c379a000000000000000000000000000000000000000000000000000000000815260040161042990610a86565b60405180910390fd5b600160008083815260200190815260200160002060008473ffffffffffffffffffffffffffffffffffffffff1673ffffffffffffffffffffffffffffffffffffffff16815260200190815260200160002060006101000a81548160ff0219169083151502179055508173ffffffffffffffffffffffffffffffffffffffff167f0666448aae9b9c8249fd8213a35a9c10218a0eac2fb39b96ed90c67214c7e761826040516104e0919061089f565b60405180910390a25050565b6000807fba8fbb1f529827cdf1c053a267d096d8548edcdbacbe59aaad3ac859c2b9012c815260200190815260200160002060003373ffffffffffffffffffffffffffffffffffffffff1673ffffffffffffffffffffffffffffffffffffffff16815260200190815260200160002060009054906101000a900460ff166105a8576040517f08c379a000000000000000000000000000000000000000000000000000000000815260040161059f90610a86565b60405180910390fd5b600080600083815260200190815260200160002060008473ffffffffffffffffffffffffffffffffffffffff1673ffffffffffffffffffffffffffffffffffffffff16815260200190815260200160002060006101000a81548160ff0219169083151502179055508173ffffffffffffffffffffffffffffffffffffffff167fea83a7caef01824e96446a8c4bc8ff4669edd99e129b53e32c077f85d216808182604051610656919061089f565b60405180910390a25050565b7ff698085e4a553677f951d53cb3540c9857b7df86e6fe9dd8675727a5ce6c339881565b7f7e4426c6cb2028c18694a4cb0d4f25071e3e10bdda3479bfabb4d9dcce743f7481565b7f47f9382f6b5894c94d40704efac5c5919984f100c18645111fc2e2de6157ee5581565b7f03b4296df36940f9f88b9f28caf1ad73d7cac12573d3af708733d6768b1396ee81565b600080600084815260200190815260200160002060008373ffffffffffffffffffffffffffffffffffffffff1673ffffffffffffffffffffffffffffffffffffffff16815260200190815260200160002060009054906101000a900460ff16905092915050565b600160009054906101000a900473ffffffffffffffffffffffffffffffffffffffff1681565b7faba2cfc253aa4a91bc6d762507a41ab724f9871007b683a3eb0cc6f60bfbf8b681565b7f3a77f68435f65847d62fe5002bda8e70406a71152c0395510750c09d71120fe281565b7f7a185ffea16e2390d2c480bf4a3b26f6b4c9ed031a2579ecdde11bb0998cee2581565b7ff1a7ebff2a3302e8110689b0c37dde2ef827caacb2d788a992b1b84ace4522a581565b7f628b54ca54320e7ee0d670633d4dfda199baaf6c75a3487f48cf9594d8ddc75b81565b7f17f227cb8385ca2a630d1a9e005ba1be6bca277e035e64b72ecc1b4e233d137781565b60006020528160005260406000206020528060005260406000206000915091509054906101000a900460ff1681565b6000819050919050565b61089981610886565b82525050565b60006020820190506108b46000830184610890565b92915050565b600080fd5b600073ffffffffffffffffffffffffffffffffffffffff82169050919050565b60006108ea826108bf565b9050919050565b6108fa816108df565b811461090557600080fd5b50565b600081359050610917816108f1565b92915050565b61092681610886565b811461093157600080fd5b50565b6000813590506109438161091d565b92915050565b600080604083850312156109605761095f6108ba565b5b600061096e85828601610908565b925050602061097f85828601610934565b9150509250929050565b600080604083850312156109a05761099f6108ba565b5b60006109ae85828601610934565b92505060206109bf85828601610908565b9150509250929050565b60008115159050919050565b6109de816109c9565b82525050565b60006020820190506109f960008301846109d5565b92915050565b610a08816108df565b82525050565b6000602082019050610a2360008301846109ff565b92915050565b600082825260208201905092915050565b7f4e6f7420617574686f72697a6564000000000000000000000000000000000000600082015250565b6000610a70600e83610a29565b9150610a7b82610a3a565b602082019050919050565b60006020820190508181036000830152610a9f81610a63565b905091905056fea2646970667358221220ae02d9808cd84e4e9536b69221c32b00a0a7f5d2cbd78c542505c486144b135864736f6c63430008180033",
  "immutableReferences": {},
  "source": "// SPDX-License-Identifier: MIT\r\npragma solidity ^0.8.0;\r\n\r\n/*\r\n * RBAC Contract for Defense Ammunition System\r\n * Handles:\r\n * - Role creation\r\n * - Role assignment\r\n * - Role revocation\r\n * - Enforces hierarchy\r\n */\r\n\r\ncontract RBAC {\r\n    // Define all roles\r\n    // --- Manufacturing Supply Chain ---\r\n    bytes32 public constant ROLE_CHEMICAL_SUPPLIER = keccak256(\"ROLE_CHEMICAL_SUPPLIER\");     // Raw Gunpowder/Explosives\r\n    bytes32 public constant ROLE_METALLURGY_SUPPLIER = keccak256(\"ROLE_METALLURGY_SUPPLIER\"); // Raw Brass/Lead/Steel\r\n    bytes32 public constant ROLE_MANUFACTURER = keccak256(\"ROLE_MANUFACTURER\");               // Component Creation (Casings/Primers)\r\n    bytes32 public constant ROLE_ASSEMBLER = keccak256(\"ROLE_ASSEMBLER\");                     // Final Cartridge Assembly\r\n    bytes32 public constant ROLE_QUALITY_CONTROL = keccak256(\"ROLE_QUALITY_CONTROL\");         // Factory Integrity Inspector\r\n    \r\n    // --- Military Deployment Chain ---\r\n    bytes32 public constant ROLE_COMPANY = keccak256(\"ROLE_COMPANY\");\r\n    bytes32 public constant ROLE_REGIMENT = keccak256(\"ROLE_REGIMENT\");\r\n    bytes32 public constant ROLE_DIVISION = keccak256(\"ROLE_DIVISION\");\r\n    bytes32 public constant ROLE_CORPS = keccak256(\"ROLE_CORPS\");\r\n    bytes32 public constant ROLE_COMMAND = keccak256(\"ROLE_COMMAND\");\r\n    bytes32 public constant ROLE_INVENTORY = keccak256(\"ROLE_INVENTORY\");\r\n    bytes32 public constant ROLE_AUDITOR = keccak256(\"ROLE_AUDITOR\");\r\n    // role => address => bool\r\n    mapping(bytes32 => mapping(address => bool)) public roles;\r\n\r\n    // Events\r\n    event RoleAssigned(address indexed account, bytes32 role);\r\n    event RoleRevoked(address indexed account, bytes32 role);\r\n\r\n    address public systemAdmin; // Command Head or root authority\r\n\r\n    constructor() {\r\n        systemAdmin = msg.sender;\r\n        roles[ROLE_COMMAND][msg.sender] = true; // Root privilege\r\n    }\r\n\r\n    // Modifier to restrict functions to admin\r\n    modifier onlyAdmin() {\r\n        require(roles[ROLE_COMMAND][msg.sender], \"Not authorized\");\r\n        _;\r\n    }\r\n\r\n    // Assign role\r\n    function assignRole(address account, bytes32 role) public onlyAdmin {\r\n        roles[role][account] = true;\r\n        emit RoleAssigned(account, role);\r\n    }\r\n\r\n    // Revoke role\r\n    function revokeRole(address account, bytes32 role) public onlyAdmin {\r\n        roles[role][account] = false;\r\n        emit RoleRevoked(account, role);\r\n    }\r\n\r\n    // Check if address has role\r\n    function hasRole(bytes32 role, address account) public view returns(bool) {\r\n        return roles[role][account];\r\n    }\r\n}\r\n",
  "sourcePath": "C:\\Users\\Asus\\Desktop\\defence-blockchain-ml\\defence-blockchain-machinelearning\\smart-contracts\\contracts\\RBAC.sol",
  "compiler": {
    "name": "solc",
    "version": "0.8.24+commit.e11b9ed9.Emscripten.clang"
  },
  "schemaVersion": "3.4.16",
  "updatedAt": "2026-04-10T09:35:45.430Z",
  "networkType": "ethereum",
  "devdoc": {
    "kind": "dev",
    "methods": {},
    "version": 1
  },
  "userdoc": {
    "kind": "user",
    "methods": {},
    "version": 1
  }
}